:020000040800F2
:1000000000000220B90D00085D0C0008630C000818
:10001000690C00086F0C0008750C00080000000057
:100020000000000000000000000000007B0C000841
:10003000890C000800000000970C0008A50C0008BF
:10004000090E0008090E0008090E0008090E000834
:10005000090E0008090E0008090E0008090E000824
:10006000090E0008090E0008090E0008090E000814
:10007000090E0008090E0008090E0008090E000804
:10008000090E0008090E0008090E00080000000013
:10009000000000000000000000000000090E000841
:1000A000090E0008090E0008090E0008090E0008D4
:1000B000090E0008090E0008090E0008090E0008C4
:1000C000090E0008090E0008090E0008090E0008B4
:1000D000090E0008B10C0008090E0008000000001D
:1000E000090E0008090E0008090E000800000000B3
:1000F000000000000000000000000000090E0008E1
:1001000000000000C50C0008090E0008090E0008D8
:1001100000000000000000000000000000000000DF
:10012000090E0008090E0008D90C0008ED0C0008A3
:10013000090E0008000000000000000000000000A0
:10014000000000000000000000000000090E000890
:10015000090E0008010D0008150D0008090E000821
:10016000090E0008090E0008000000000000000051
:10017000000000000000000000000000000000007F
:1001800000000000090E0008000000000000000050
:08019000090E0008090E000829
:1001A00010B5054C237833B9044B13B10448AFF3B1
:1001B00000800123237010BD880000200000000093
:1001C000F4B8000808B5034B1BB103490348AFF36B
:1001D000008008BD000000008C000020F4B800087A
:1001E00001F0FF01102A2BDB10F0070F08D010F8E8
:1001F000013B013A8B422DD010F0070F42B3F6D1EC
:10020000F0B441EA012141EA014122F007047FF004
:1002100000070023F0E80256083C85EA010586EA5B
:10022000010685FA47F5A3FA87F586FA47F6A5FA97
:1002300087F68EB9EED1F0BC01F0FF0102F00702A3
:1002400032B110F8013B013A83EA010313B1F8D14E
:100250000020704701387047002D06BF354603382F
:10026000073815F0010F07D1013015F4807F02BF68
:10027000013015F4C03F0130F0BC0138704700BFB9
:1002800053B94AB9002908BF00281CBF4FF0FF31FD
:100290004FF0FF3000F06EB9ADF1080C6DE904CEFF
:1002A00000F006F8DDF804E0DDE9022304B0704751
:1002B0002DE9F047089D04468C46002B40F08380D2
:1002C0008A42174647D9B2FA82F242B1C2F12000FF
:1002D00024FA00F09140974040EA010C94404FEA24
:1002E0001748230CBCFBF8F61FFA87FE08FB16C163
:1002F00043EA014306FB0EF1994209D9FB1806F1C6
:10030000FF3080F01981994240F21681023E3B4451
:100310005B1AA4B2B3FBF8F008FB103344EA0344C1
:1003200000FB0EFEA64509D93C1900F1FF3380F011
:100330000581A64540F2028102383C4440EA06406D
:10034000A4EB0E0400261DB1D4400023C5E90043F0
:100350003146BDE8F08702B9FFDEB2FA82F2002A28
:1003600050D1CB1B4FEA174E1FFA87F80126B3FB7B
:10037000FEFC210C0EFB1C3341EA034108FB0CF38D
:100380008B4207D979180CF1FF3002D28B4200F270
:10039000E9808446C91AA3B2B1FBFEF00EFB10112E
:1003A00043EA014408FB00F8A04507D93C1900F1D5
:1003B000FF3302D2A04500F2D9801846A4EB08040E
:1003C00040EA0C40BFE78B4209D9002D00F0B18014
:1003D0000026C5E9000130463146BDE8F087B3FA92
:1003E00083F6002E4AD18B4202D3824200F2B880BB
:1003F000841A61EB030101208C46002DA8D0C5E9C9
:10040000004CA5E7C2F1200320FA03F6974001FA59
:1004100002F04FEA174ED9403043030CB1FBFEF611
:100420001FFA87F80EFB161143EA014306FB08F199
:10043000994204FA02F409D9FB1806F1FF3C80F056
:100440008D80994240F28A80023E3B445B1A81B221
:10045000B3FBFEF00EFB103341EA034100FB08F34F
:100460008B4207D9791800F1FF3C73D28B4271D9C6
:1004700002383944CB1A40EA064678E7C6F1200C28
:1004800003FA06F422FA0CF31C4320FA0CF701FAE3
:1004900006F34FEA144E21FA0CF11F433B0CB1FB5B
:1004A000FEF91FFA84F80EFB191143EA014109FB1A
:1004B00008FA8A4502FA06F200FA06F308D961182A
:1004C00009F1FF3048D28A4546D9A9F102092144F1
:1004D000A1EB0A01BFB2B1FBFEF00EFB101147EA1F
:1004E000014700FB08F8B84507D9E71900F1FF31CB
:1004F0002ED2B8452CD90238274440EA0940A7EB50
:100500000807A0FB02894F45C64649461AD317D0B3
:100510005DB1B3EB0E0267EB010707FA0CFCF2408A
:100520004CEA0202F740C5E9002700263146BDE843
:10053000F0872E4628460BE70646E9E61846FDE614
:100540004345E5D2B8EB020E69EB04010138DFE761
:100550000846D2E760468DE78146B9E7664675E70B
:1005600030464AE7ACF1020C394413E702383C4408
:1005700024E700BF704700BF80B500AF4FF4E13102
:10058000002001F03FFA00BF80BD000080B5D8B068
:1005900002AF3B1D18603B1D07F5907219681046AD
:1005A00005F079F8034687F8573197F85731002B53
:1005B00038D107F1080207F590731146184605F087
:1005C0002EF9034687F8573197F85731002B24D17D
:1005D00007F108039B7D002B1FD007F108031B7A4E
:1005E00003F01003002B09D007F1080316333A1D5E
:1005F00012681049002001F00BFCDAE707F108034C
:100600001B68194607F1080316333A1D009112685A
:100610000949002001F0FCFBCBE707F59073184671
:1006200005F0D7F897F85731184607F5AC77BD466F
:1006300080BD00BF38B9000844B9000890B5ADF2DC
:10064000944D02AF00F060FF0346002B04D0CD496B
:10065000002001F0DDFB03E0CB49002001F0D8FBD6
:10066000CA49002001F0D4FB07F24443184600F0C9
:1006700061FF0346002B53D0D7F844341A46C449CF
:10068000002001F0C5FBD7F848341A46C1490020C4
:1006900001F0BEFBD7F84C341A46BF49002001F0E8
:1006A000B7FBD7F850341A46BC49002001F0B0FB24
:1006B000D7F854341A46BA49002001F0A9FBD7F8FC
:1006C00058341A46B749002001F0A2FBD7F85C3431
:1006D0001A46B549002001F09BFBD7F860341A4652
:1006E000B249002001F094FBD7F86404D7F86434D1
:1006F0009C0AD7F8642413469B0013445B00990AB4
:10070000AB4BA3FB0123DA0813469B0013445B00A9
:10071000CA1A009223460246A649002001F078FB3F
:100720009A49002001F074FB0023C7F87C340020B4
:1007300001F080FA0346002B00F0AD819E490020B5
:1007400001F066FB9D49002001F062FB9A49002000
:1007500001F05EFB9A49002001F05AFB9649002007
:1007600001F056FB9749002001F052FB964900200A
:1007700001F04EFB9549002001F04AFB944900200E
:1007800001F046FB8C49002001F042FB914900201A
:1007900001F03EFB002001F095FA034687F87B3418
:1007A00097F87B341A468C49002001F031FB8949C7
:1007B000002001F02DFB97F87B34613B032B00F206
:1007C0006C8101A252F823F0D90700083F08000805
:1007D000BD080008E908000807F51171642301222B
:1007E000D7F87C0400F032FF0346002B1ED0002314
:1007F000C7F8843415E0D7F88434990007F51173ED
:10080000D7F8842453F8223000930B46D7F87C2481
:100810007249002001F0FCFAD7F884340133C7F89C
:100820008434D7F884347F2BE5DD03E06C49002065
:1008300001F0EEFA6B49002001F0EAFA2EE107F52B
:10084000107207F50F731946674805F040F8034624
:1008500087F8733497F87334002B23D107F510739E
:100860001B689B69023B07F510721268528902FBF4
:1008700003F3C7F86C3407F510731B685B891A46DD
:1008800007F50F731B6803FB02F3C7F86834D7F84A
:100890006C345A08D7F868345B085449002001F0DA
:1008A000B7FA06E097F873341A465149002001F070
:1008B000AFFA4C49002001F0ABFAEFE04D48FFF7EA
:1008C00065FE034687F8733497F87334002B06D01F
:1008D00097F873341A464649002001F099FA4149C5
:1008E000002001F095FAD9E000F01AF9C7F8740475
:1008F00007F10C030B224049184603F01DFF034685
:1009000087F8733497F87334002B40F0B08007F108
:100910000C033A49184605F0FFF807F10C03384973
:10092000184605F0F9F807F10C033649184605F0AA
:10093000F3F807F10C033449184605F0EDF807F118
:100940000C032449184605F0E7F80023C7F8803463
:100950000CE007F10C03D7F880242C49184605F069
:10096000DBF8D7F880340133C7F88034D7F8803407
:10097000072BEEDD07F10C030021184604F082FC82
:1009800065E000BF58B9000868B900087CB90008E4
:10099000A8B90008C8B90008E8B9000808BA0008F2
:1009A00028BA000848BA000868BA000888BA0008DF
:1009B000CDCCCCCCA8BA0008D4BA000820BB000823
:1009C0003CBB000854BB000898BB0008D4BB00081F
:1009D00020BC000864BC000868BC000878BC0008A3
:1009E0008CBC0008A0BC0008ECBC0008F0BC0008EF
:1009F00024BD000830BD000834BD000844BD000817
:100A00004CBD000854BD00085CBD000860BD000876
:100A100007F1080300221A6007F10803F91D07F126
:100A20000C00012204F0D2F8034687F8733497F8DB
:100A30007334002B12D107F108031B68002B0FD071
:100A4000FB1D1B781A461649002001F0E1F9002031
:100A500001F0F0F80346002BDAD102E000BF00E01D
:100A600000BF07F10C03184604F0E2FB03E00D4958
:100A7000002001F0CDF900F053F80246D7F87434A5
:100A8000D31A1A460849002001F0C2F9074900208C
:100A900001F0BEF902E000BF49E600BF47E600BF33
:100AA00068BD00086CBD00087CBD0008A0BC000843
:100AB00080B584B000AF05F071FB00F039F8002379
:100AC000FB60164B1B6B154A43F080031363134BFB
:100AD0001B6B03F08003FB60FB680023BB600F4BC4
:100AE0001B6B0E4A43F0010313630C4B1B6B03F0AB
:100AF0000103BB60BB6800237B60084B1B6B074A8C
:100B000043F002031363054B1B6B03F002037B608E
:100B10007B6800BF1037BD4680BD00BF0038024073
:100B200080B500AF05F0A0FB0346184680BD00006D
:100B300080B594B000AF07F12003302200211846A1
:100B40000AF088FA07F10C0300221A605A609A60D2
:100B5000DA601A610023BB60274B1B6C264A43F006
:100B600080531364244B1B6C03F08053BB60BB6841
:100B700000237B60214B1B68204A43F440431360F1
:100B80001E4B1B6803F440437B607B6801233B6280
:100B90004FF480337B620223BB634FF48003FB631B
:100BA00019233B64C0237B640223BB640423FB64DE
:100BB00007F12003184606F0D1FB0346002B01D0B5
:100BC00000F01EF80F23FB6002233B6100237B61D2
:100BD0004FF48053BB610023FB6107F10C03032139
:100BE000184606F033FE0346002B01D000F008F84B
:100BF00000BF5037BD4680BD003802400070004045
:100C000080B400AF72B600BFFEE7000080B483B0CE
:100C100000AF00237B60104B5B6C0F4A43F48043B2
:100C200053640D4B5B6C03F480437B607B68002353
:100C30003B60094B1B6C084A43F080531364064B1E
:100C40001B6C03F080533B603B6800BF0C37BD4614
:100C50005DF8047B704700BF0038024080B400AFED
:100C6000FEE780B400AFFEE780B400AFFEE780B4DB
:100C700000AFFEE780B400AFFEE780B400AF00BF76
:100C8000BD465DF8047B704780B400AF00BFBD4631
:100C90005DF8047B704780B400AF00BFBD465DF8CF
:100CA000047B704780B500AF05F0CAFA00BF80BD75
:100CB00080B500AF024808F0FDFB00BF80BD00BF5B
:100CC0000408002080B500AF024807F005FA00BF15
:100CD00080BD00BF0006002080B500AF024805F0CF
:100CE0002DFE00BF80BD00BF4407002080B500AFCF
:100CF000024805F023FE00BF80BD00BF4005002074
:100D000080B500AF024805F019FE00BF80BD00BFEE
:100D1000A005002080B500AF024805F00FFE00BF1F
:100D200080BD00BFE406002080B586B000AF7860CB
:100D3000144A154BD31A7B617B693B61134B1B68CB
:100D4000002B02D1114B124A1A60104B1A687B68B3
:100D500013443A699A4207D20AF052F903460C2228
:100D60001A604FF0FF3309E0084B1B68FB60074B2C
:100D70001A687B681344054A1360FB6818461837E5
:100D8000BD4680BD0000022000040000A400002039
:100D9000A008002080B400AF064BD3F88830054A85
:100DA00043F47003C2F8883000BFBD465DF8047B91
:100DB000704700BF00ED00E0DFF834D00D480E4969
:100DC0000E4A002302E0D458C4500433C4188C42A5
:100DD000F9D30B4A0B4C002301E013600432A2420A
:100DE000FBD3FFF7D7FF0AF011F90AF0FDF87047BF
:100DF00000000220000000208800002084C20008BB
:100E000088000020A0080020FEE780B487B000AF73
:100E1000F860B9607A600123FB75FB6800221A60F4
:100E2000FB6800225A60FB687A689A60FB68BA68BF
:100E3000DA60FB7D18461C37BD465DF8047B7047C1
:100E400080B487B000AFF860B9607A600123FB75A9
:100E500000233B6126E0FB68DB68002B09D0FB68C0
:100E6000DA68FB685B681A443B69B9680B4412781E
:100E70001A70FB685A68FB681B689A420CD0FB68C2
:100E80005B680133FA689268B3FBF2F102FB01F28E
:100E90009A1AFB685A6002E00023FB7506E03B6982
:100EA00001333B613B697A689A42D4D8FB7D18468E
:100EB0001C37BD465DF8047B704780B485B000AF39
:100EC00078607B681A687B685B68D31A7A68926876
:100ED000B3FBF2F102FB01F29B1AFB60FB681846C0
:100EE0001437BD465DF8047B7047000080B582B0C2
:100EF00000AF0346FB711D4B00221A7000F0F8FA98
:100F0000034683F00103DBB2002B07D0174B1B789D
:100F1000DBB243F00103DAB2144B1A7000F0F4FABA
:100F2000034683F00103DBB2002B07D00F4B1B7885
:100F3000DBB243F00203DAB20C4B1A700A2000F065
:100F400065FB034683F00103DBB2002B07D0074BA0
:100F50001B78DBB243F00103DAB2044B1A70034B87
:100F60001B78DBB218460837BD4680BD0400002060
:100F700080B582B000AF0346FB710D4B00221A70A2
:100F800000F0B6FA034683F00103DBB2002B07D072
:100F9000074B1B78DBB243F00103DAB2044B1A7043
:100FA000034B1B78DBB218460837BD4680BD00BF37
:100FB0000400002080B582B000AF0346FB71FB79CE
:100FC0001846FFF793FF034618460837BD4680BD15
:100FD00080B586B000AFB9607A603B600346FB73B2
:100FE0000123FB7542F210733A68B968786800F023
:100FF0002DFB0346002B01D00023FB75FB7D18461B
:101000001837BD4680BD80B586B000AFB9607A6044
:101010003B600346FB730123FB7542F210733A6891
:10102000B968786800F07CFB0346002B01D00023F0
:10103000FB75FB7D18461837BD4680BD80B58CB06A
:1010400000AF03463A60FB710B46BB71012387F882
:101050002F30254B1B78DBB203F00103002B01D0AE
:1010600003233CE0BB79032B34D801A252F823F0D0
:101070008110000889100008A1100008BB100008AA
:10108000002387F82F3028E007F10803184600F006
:1010900051FA3A6A3B681A60002387F82F301CE047
:1010A00007F10803184600F045FA7B6A9AB23B68DC
:1010B0001A80002387F82F300FE007F10803184645
:1010C00000F038FA7B6A5A0A3B681A60002387F8F6
:1010D0002F3002E0042387F82F3097F82F3018467E
:1010E0003037BD4680BD00BF0400002080B582B00F
:1010F00000AF0123FB710B490B4804F079FF034655
:10110000002B0AD100220749084803F0CFFA034612
:10111000002B02D1064B01221A70FB7918460837C2
:10112000BD4680BD08030020E4BD00080C0300207C
:10113000A800002080B584B000AF0123FB7200231B
:101140007B601B4B1B6B1A4A43F002031363184B63
:101150001B6B03F002037B607B680023FB601EE0D7
:10116000FB68D8B21349FA6813465B0013449B002E
:101170000B4408331B78194600F01EF8FB68D8B200
:101180000C49FA6813465B0013449B000B440B3375
:101190001B78194600F072F8FB680133FB60FB68AE
:1011A000002BDDDDFB7A18461037BD4680BD00BF41
:1011B000003802400800002080B588B000AF034628
:1011C0000A46FB711346BB710123FB7707F1080345
:1011D00000221A605A609A60DA601A61BB79052BA6
:1011E0002CD801A252F823F0011200080B120008BB
:1011F000151200081F1200082912000833120008F7
:101200000023FB6000233B6118E00023FB60012307
:101210003B6113E00023FB6002233B610EE00123EE
:10122000FB6000233B6109E00123FB6001233B617C
:1012300004E00123FB6002233B6100BFFA790E4901
:1012400013465B0013449B000B4404331B68BB60D4
:10125000FA79094913465B0013449B000B441B6851
:1012600007F108021146184605F0DEFDFB7F18461F
:101270002037BD4680BD00BF0800002090B583B078
:1012800000AF03460A46FB711346BB71FB79002B86
:1012900040D1BB79002B1ED0FA79204913465B0060
:1012A00013449B000B441868FA791C4913465B00F1
:1012B00013449B000B4404331B6899B2FA79174C12
:1012C00013465B0013449B00234409331B781A46E2
:1012D00006F02AF81FE0FA79104913465B00134420
:1012E0009B000B441868FA790C4913465B001344C1
:1012F0009B000B4404331B6899B2FA79074C1346E0
:101300005B0013449B0023440A331B781A4606F003
:101310000BF800E000BF0C37BD4690BD0800002070
:1013200080B584B000AF0346FB710023FB73FB79EB
:10133000002B01D0002324E0FA79144913465B0006
:1013400013449B000B441868FA79104913465B005C
:1013500013449B000B4404331B689BB2194605F0F1
:10136000CBFF03461846FA79084913465B0013443D
:101370009B000B4409331B78984201D10123FB7376
:10138000FB7B18461037BD4680BD00BF080000201B
:1013900080B588B000AF0123FB763B1D00221A60A8
:1013A0005A609A60DA601A6100233B60194B1B6B2C
:1013B000184A43F004031363164B1B6B03F004033A
:1013C0003B603B680123BB600023FB6000233B6163
:1013D0000023FB6116E0104AFB69DB0013449B8885
:1013E0007B600D4AFB6952F833303A1D11461846AE
:1013F00005F01AFDFB69DBB2184600F00FF8FB6937
:101400000133FB61FB69002BE5DDFB7E18462037CD
:10141000BD4680BD003802401400002080B582B077
:1014200000AF0346FB71FB79002B11D1FB790A4A0F
:1014300052F83300FB79084ADB0013449988FB79A2
:10144000054ADB001344DB791A4605F06DFF00E026
:1014500000BF0837BD4680BD1400002080B582B0B3
:1014600000AF0023FB711E4B1E4A1A601C4B00226A
:101470005A601B4B00229A60194B0022DA60184B0D
:1014800000221A61164B00225A61154B00229A6104
:10149000154B00221A700020FFF742FF0346002B75
:1014A00002D0114B01221A700F4B1B78002B0FD06A
:1014B0000B4806F09BFB0346002B09D14FF400615B
:1014C000074807F073F90346002B01D10123FB7194
:1014D000064AFB791370FB7918460837BD4680BD74
:1014E00000060020002C0140AA000020A9000020D6
:1014F00080B400AF034B1B781846BD465DF8047BF3
:10150000704700BFA900002080B500AF0020FFF7A2
:1015100007FF0346002B03D0054B01221A7002E09F
:10152000034B00221A70024B1B78184680BD00BF87
:10153000AA000020B0B58CB000AF7860002387F817
:101540002F307B68BB62244B1B78002B3ED007F109
:1015500008031946214807F0FDF8BA68BB6A1A600B
:10156000FA68BB6A5A603A69BB6A9A607A69BB6A70
:10157000DA60BA69BB6A1A61FA69BB6A5A613A6A87
:10158000BB6A9A617A6ABB6ADA61BB6A1B691846F0
:101590004FF00001BB6A5B691A464FF0000302FB83
:1015A00001F500FB03F42C44A0FB0223E1180B46D9
:1015B0004FF000004FF00001100D40EA0330190D0C
:1015C0000246BB6A1A62012387F82F3097F82F3042
:1015D00018463037BD46B0BDA900002000060020E7
:1015E00080B582B000AF084807F07AF90346042BB3
:1015F00002D10023FB7101E00123FB71FB79184646
:101600000837BD4680BD00BF0006002080B584B00D
:1016100000AF7860FFF784FAF86009E0FFF7E0FFB9
:10162000034683F00103DBB2002B01D0012308E065
:10163000FFF776FA0246FB68D31A7A689A42EDD829
:10164000002318461037BD4680BD000080B586B027
:1016500000AFF860B9607A603B600023FB751E4BF9
:1016600000221A707B68FA68B9681C4806F06CFBA7
:101670000346002B2AD1FFF753FA386107E0FFF742
:101680004FFA02463B69D31A3A689A4208D9124B7C
:101690001B78DBB283F00103DBB2002BEFD10DE04E
:1016A00000BF0BE0FFF73CFA02463B69D31A3A68E9
:1016B0009A4203D8084B00221A7004E0FFF790FF0B
:1016C0000346002BEED1044B1B78FB75FB7D1846BF
:1016D0001837BD4680BD00BFAB00002000060020CB
:1016E00080B483B000AF7860044B01221A7000BF51
:1016F0000C37BD465DF8047B704700BFAB0000208F
:1017000080B483B000AF7860044B01221A7000BF30
:101710000C37BD465DF8047B704700BFAC0000206D
:1017200080B586B000AFF860B9607A603B60002396
:10173000FB751E4B00221A707B68FA68B9681C485A
:1017400006F0E4FB0346002B2AD1FFF7E9F93861E4
:1017500007E0FFF7E5F902463B69D31A3A689A4277
:1017600008D9124B1B78DBB283F00103DBB2002BEC
:10177000EFD10DE000BF0BE0FFF7D2F902463B6965
:10178000D31A3A689A4203D8084B00221A7004E030
:10179000FFF726FF0346002BEED1044B1B78FB75A9
:1017A000FB7D18461837BD4680BD00BFAC00002049
:1017B0000006002080B58CB000AF786007F11C03F4
:1017C00000221A605A609A60DA601A617B681B68AE
:1017D000774A934240F0E8800023BB61754B1B6B56
:1017E000744A43F480031363724B1B6B03F480034E
:1017F000BB61BB6900237B616E4B5B6C6D4A43F43C
:10180000006353646B4B5B6C03F400637B617B6927
:1018100000233B61674B1B6B664A43F00103136374
:10182000644B1B6B03F001033B613B690023FB60CE
:10183000604B1B6B5F4A43F0020313635D4B1B6BF2
:1018400003F00203FB60FB684FF45073FB6102235B
:101850003B6201237B620323BB620C23FB6207F123
:101860001C031946544805F0DFFA48F2A003FB6157
:1018700002233B6201237B620323BB620C23FB62D6
:1018800007F11C0319464D4805F0CEFA4C4B4D4A62
:101890001A604B4B4FF000625A60494B00229A602D
:1018A000474B0022DA60464B4FF480621A61444B8A
:1018B0004FF480525A61424B4FF480429A61404B40
:1018C0002022DA613E4B00221A623D4B04225A620A
:1018D0003B4B03229A623A4B4FF40002DA62384BD8
:1018E0004FF400121A63364804F032FE0346002B10
:1018F00001D0FFF785F97B68314A1A64304A7B686A
:101900009363314B314A1A602F4B4FF000625A609B
:101910002D4B40229A602C4B0022DA602A4B4FF468
:1019200080621A61284B4FF480525A61264B4FF463
:1019300080429A61244B2022DA61234B00221A62F2
:10194000214B04225A62204B03229A621E4B4FF411
:101950000002DA621C4B4FF400121A631A4804F0BA
:10196000F7FD0346002B01D0FFF74AF97B68164AC2
:10197000DA63154A7B68936300220521312004F065
:10198000A2FD312004F0BBFD002205213B2004F024
:101990009AFD3B2004F0B3FD00220521452004F010
:1019A00092FD452004F0ABFD00BF3037BD4680BD41
:1019B000002C0140003802400000024000040240B8
:1019C0004005002058640240A0050020A0640240A9
:1019D00080B483B000AF00237B6007E0084A7B68D7
:1019E000134400221A707B6801337B607B68002BF4
:1019F000F4DD012318460C37BD465DF8047B7047C3
:101A0000B000002080B586B000AF03463960FB719E
:101A10000023FB75FB79002B02D0012B78D0EFE07F
:101A20007A4B7B4A1A60794A3B685360774B0022B5
:101A30009A60764B0022DA60744B00221A61734B75
:101A40000C225A61714B00229A61704B0022DA61BC
:101A50006E4807F051FCFB791B016E4A13444FF4AA
:101A600080726D491846FFF7D0F900233B616B4B3C
:101A70001B6B6A4A43F480031363684B1B6B03F4CC
:101A800080033B613B69002200213A2004F01BFDEA
:101A90003A2004F034FD5D4807F0E1FB0346002BDB
:101AA00002D00023FB75ABE00123FB75FB795C4A98
:101AB0000121D1544FF480725749544807F0CAFCB1
:101AC0000346002B01D00023FB75FB79514A1B0113
:101AD000134408331968534B1B685A68FB798A1AF8
:101AE0004C491B010B441A60FA79FB7949491201F0
:101AF0000A44126847491B010B4404331A60002250
:101B00000021462004F0DFFC462004F0F8FC77E0DA
:101B1000454B464A1A60444A3B685360424B002298
:101B20009A60414B0022DA603F4B00221A613E4B23
:101B30000C225A613C4B00229A613B4B0022DA6135
:101B4000394807F0D9FBFB791B01324A13444FF4A3
:101B5000807231491846FFF758F90023FB602F4B7C
:101B60001B6B2E4A43F4800313632C4B1B6B03F453
:101B70008003FB60FB68002200213A2004F0A3FCF4
:101B80003A2004F0BCFC284807F069FB0346002B10
:101B900002D00023FB7532E00123FB75FB79204A5C
:101BA0000121D1544FF480721B491F4807F052FCA9
:101BB0000346002B01D00023FB75FB79154A1B015E
:101BC0001344083319681A4B1B685A68FB798A1A40
:101BD00010491B010B441A60FA79FB790D49120177
:101BE0000A4412680B491B010B4404331A6000229B
:101BF0000021462004F067FC462004F080FC00BF72
:101C0000FB7D18461837BD4680BD00BF0408002084
:101C100000100140B4000020C40000200038024041
:101C2000B000002044070020480800200044004085
:101C30008406002080B584B000AF0346FB7100230A
:101C4000FB60FB79002B02D0012B18D02FE0FB7931
:101C5000194A1B01134408331968184B1B685A684A
:101C6000FB798A1A14491B010B441A60FB791B018A
:101C7000114A13441846FFF720F9F86017E0FB7982
:101C80000D4A1B011344083319680D4B1B685A6831
:101C9000FB798A1A08491B010B441A60FB791B0166
:101CA000054A13441846FFF708F9F86000BFFB68BF
:101CB00018461037BD4680BDB40000204407002000
:101CC0008406002080B584B000AF0346FB71FB7929
:101CD000002B02D0012B08D00FE007F10F030122E7
:101CE00019460848FFF7ACF807E007F10F03012297
:101CF00019460548FFF7A4F800BFFB7B18461037CC
:101D0000BD4680BDB4000020C400002080B588B06E
:101D100000AF0346B9607A60FB730023FB61FB7B75
:101D2000002B02D0012B34D067E0FEF7F9FE3861BA
:101D300025E0344B93F83D30DBB2202B1FD100233C
:101D4000BB610BE0BB69BA68134419782E4ABB69C2
:101D500013440A461A70BB690133BB61BB697A68D8
:101D60009A42EFD87B689BB21A462749254807F06C
:101D7000F3FA0346002B0AD17B68FB6107E0FEF70C
:101D8000CFFE02463B69D31A632BD2D935E000BFA0
:101D900033E0FEF7C5FE386125E01C4B93F83D307B
:101DA000DBB2202B1FD100237B610BE07B69BA687B
:101DB00013441978144A7B6913440A461A707B69E4
:101DC00001337B617B697A689A42EFD87B689BB26A
:101DD0001A460D490D4807F0BFFA0346002B0AD1F9
:101DE0007B68FB6107E0FEF79BFE02463B69D31A66
:101DF000632BD2D900E000BF00BFFB691846203733
:101E0000BD4680BD04080020C40100204808002011
:101E10000EB480B5C7B000AF0246FB1D1A7007F5BF
:101E2000947207F10C031A6007F10C0307F110001C
:101E30001B68D7F824214FF4807109F03FF9C7F8E7
:101E40001401D7F8142107F11001FB1D1B78184667
:101E5000FFF75CFFC7F81001D7F81031184607F5F7
:101E60008E77BD46BDE8804003B0704780B483B034
:101E700000AF786000BF0C37BD465DF8047B70474B
:101E800080B483B000AF786000BF0C37BD465DF80A
:101E9000047B704780B483B000AF786000BF0C371C
:101EA000BD465DF8047B704780B58AB000AF7860AE
:101EB00007F1140300221A605A609A60DA601A610E
:101EC0007B681B684C4A934240F0928000233B6140
:101ED0004A4B5B6C494A43F010035364474B5B6CBD
:101EE00003F010033B613B690023FB60434B1B6B1A
:101EF000424A43F001031363404B1B6B03F00103A1
:101F0000FB60FB684FF404437B610223BB61002349
:101F1000FB6103233B6207237B6207F1140319462D
:101F2000374804F081FF374B374A1A60354B4FF082
:101F300000625A60334B00229A60324B0022DA6012
:101F4000304B4FF480621A612E4B00225A612D4BA8
:101F500000229A612B4B4FF48072DA61294B0022E8
:101F60001A62284B00225A62264804F0F1FA03460E
:101F7000002B01D0FEF744FE7B68224A9A63214A77
:101F80007B689363214B224A1A60204B4FF000621A
:101F90005A601E4B40229A601C4B0022DA601B4B99
:101FA0004FF480621A61194B00225A61174B0022CC
:101FB0009A61164B0022DA61144B00221A62134B0D
:101FC00000225A62114804F0C3FA0346002B01D0E4
:101FD000FEF716FE7B680D4A5A630C4A7B689363D2
:101FE00000220021252004F06EFA252004F087FA53
:101FF00000BF2837BD4680BD0010014000380240B8
:10200000000002404407002040640240E406002033
:10201000B864024080B582B000AF78607B681B680E
:102020000F4A934217D10F4B5B6C0E4A23F01003FB
:1020300053644FF404410C4805F07AF87B689B6BBD
:10204000184604F033FB7B685B6B184604F02EFBEC
:10205000252004F062FA00BF0837BD4680BD00BFEE
:1020600000100140003802400000024080B500AF7F
:10207000FEF71EFDFFF7ACFCFFF78AF9FFF75AF8F1
:10208000FFF7ECF90346002B01D0FFF72FF800BF54
:1020900080BD000080B584B000AF0346FB71FB79C2
:1020A000084A9B0013445B685B68FA7905490A4457
:1020B000127B104698470346FB73FB7B184610378C
:1020C000BD4680BDF002002080B584B000AF03465D
:1020D000FB710023FB73FB790D4AD35C002B11D1FC
:1020E000FB790B4A0121D154FB79094A9B00134427
:1020F0005B681B68FA7906490A44127B10469847C8
:102100000346FB73FB7B18461037BD4680BD00BFFE
:10211000F002002090B587B000AFB9607A603B60F4
:102120000346FB73FB7B0A4A9B0013445B689C6875
:10213000FB7B074A1344187B3B687A68B968A04761
:102140000346FB75FB7D18461C37BD4690BD00BF9E
:10215000F002002090B587B000AFB9607A603B60B4
:102160000346FB73FB7B0A4A9B0013445B68DC68F5
:10217000FB7B074A1344187B3B687A68B968A04721
:102180000346FB75FB7D18461C37BD4690BD00BF5E
:10219000F002002080B584B000AF03463A60FB71C6
:1021A0000B46BB71FB79094A9B0013445B681B69B2
:1021B000FA7906490A44107BB9793A689847034688
:1021C000FB73FB7B18461037BD4680BDF002002034
:1021D00080B400AF00231846BD465DF8047B70470D
:1021E00080B485B000AF78607B6801331B78FB81D9
:1021F000FB891B021AB27B681B781BB213431BB20C
:10220000FB81FB8918461437BD465DF8047B704797
:1022100080B485B000AF78607B6803331B78FB60C7
:10222000FB681B027A68023212781343FB60FB687A
:102230001B027A68013212781343FB60FB681B02B1
:102240007A6812781343FB60FB6818461437BD4662
:102250005DF8047B704780B483B000AF78600B46B4
:102260007B807B685A1C7A607A88D2B21A707B882D
:102270001B0A7B807B685A1C7A607A88D2B21A70FB
:1022800000BF0C37BD465DF8047B704780B483B057
:1022900000AF786039607B685A1C7A603A68D2B2C5
:1022A0001A703B681B0A3B607B685A1C7A603A686C
:1022B000D2B21A703B681B0A3B607B685A1C7A607A
:1022C0003A68D2B21A703B681B0A3B607B685A1CA2
:1022D0007A603A68D2B21A7000BF0C37BD465DF81A
:1022E000047B704780B487B000AFF860B9607A6053
:1022F000FB687B61BB683B617B68002B0DD03A6952
:10230000531C3B617B69591C796112781A707B6898
:10231000013B7B607B68002BF1D100BF1C37BD46C1
:102320005DF8047B704780B487B000AFF860B96097
:102330007A60FB687B617B695A1C7A61BA68D2B2A9
:102340001A707B68013B7B607B68002BF3D100BF78
:1023500000BF1C37BD465DF8047B704780B489B070
:1023600000AFF860B9607A60FB68FB61BB68BB6175
:1023700000237B61FB695A1CFA611B781946BB6913
:102380005A1CBA611B78CB1A7B617B68013B7B606E
:102390007B68002B02D07B69002BEBD07B69184651
:1023A0002437BD465DF8047B704780B483B000AF2E
:1023B0007860396002E07B6801337B607B681B7862
:1023C000002B05D07B681B781A463B689342F2D1FC
:1023D0007B681B7818460C37BD465DF8047B704758
:1023E00080B485B000AF786039600023BB60BB6803
:1023F000FB6029E0274AFB681B0113441B68002B84
:102400001DD0244AFB681B0113441A687B681B68B3
:102410009A4216D11F4AFB681B01134404331A6801
:102420007B689B689A420CD11A4AFB681B011344D3
:1024300008331A687B685B699A4202D107E001237E
:10244000BB60FB680133FB60FB68012BD2D9FB68E2
:10245000022B09D1BB68002B02D13B68022B01D1B2
:10246000002310E012230EE03B68002B08D1094A3C
:10247000FB681B0113440C331B88B3F5807F01D12B
:10248000102300E0002318461437BD465DF8047B96
:10249000704700BFD002002080B483B000AF00239B
:1024A0007B6002E07B6801337B607B68012B06D890
:1024B000094A7B681B0113441B68002BF2D17B681F
:1024C000022B14BF01230023DBB218460C37BD4694
:1024D0005DF8047B704700BFD002002080B485B057
:1024E00000AF786039600023FB601FE0414AFB6861
:1024F0001B0113441A687B681B689A4213D13D4A3A
:10250000FB681B01134404331A687B689B689A427A
:1025100009D1384AFB681B01134408331A687B68E9
:102520005B699A4206D0FB680133FB60FB68012BB4
:10253000DCD900E000BFFB68022B32D10023FB6036
:1025400002E0FB680133FB60FB68012B06D8294AD7
:10255000FB681B0113441B68002BF2D1FB68022BA4
:1025600001D1002340E07B681A682249FB681B0107
:102570000B441A607B689A681E49FB681B010B4478
:1025800004331A607B685A691A49FB681B010B44C3
:1025900008331A60174AFB681B0113440C330022EE
:1025A0001A803B68002B09D0124AFB681B011344B8
:1025B0000C331B88002B01D0002315E03B68002B57
:1025C00008D10C4AFB681B0113440C331B880133F0
:1025D0009AB201E04FF480720649FB681B010B447C
:1025E0000C331A80FB68013318461437BD465DF87A
:1025F000047B7047D002002080B485B000AF7860C3
:102600007B68013B7B607B68012B25D8174A7B6880
:102610001B0113440C331B88FB81FB89B3F5807FBE
:1026200001D10023FB81FB89002B02D0FB89013BF8
:10263000FB810E4A7B681B0113440C33FA891A8014
:10264000FB89002B05D1094A7B681B01134400223A
:102650001A6000237B7301E002237B737B7B1846A7
:102660001437BD465DF8047B704700BFD0020020E0
:1026700080B485B000AF78600023FB6010E00D4AA5
:10268000FB681B0113441B687A689A4205D1094A0A
:10269000FB681B01134400221A60FB680133FB60D6
:1026A000FB68012BEBD900BF00BF1437BD465DF8B6
:1026B000047B7047D002002080B586B000AF786000
:1026C0000023FB737B68DB78002B34D07B681B6BAB
:1026D0007B617B6858787B6803F1340101237A6958
:1026E000FFF738FD0346002B02D00123FB7322E0E5
:1026F0007B680022DA707B685B6A7A69D21A7B6831
:10270000DB699A4217D27B689B783B6110E07B685B
:10271000DB697A6913447B617B6858787B6803F1D5
:10272000340101237A69FFF715FD3B69013B3B61E9
:102730003B69012BEBD8FB7B18461837BD4680BDA3
:1027400080B584B000AF786039600023FB737B688C
:102750001B6B3A689A421BD07868FFF7ADFF0346BF
:10276000FB73FB7B002B13D17B6858787B6803F1EC
:10277000340101233A68FFF7CDFC0346002B04D057
:102780004FF0FF333B600123FB737B683A681A63A9
:10279000FB7B18461037BD4680BD000080B584B075
:1027A00000AF78607868FFF787FF0346FB73FB7B19
:1027B000002B58D17B681B78032B48D17B681B7991
:1027C000012B44D17B6834334FF40072002118464A
:1027D000FFF7A9FD7B68343303F5FF734AF65521F3
:1027E0001846FFF738FD7B68343321491846FFF758
:1027F0004DFD7B68343303F5F2731E491846FFF72D
:1028000045FD7B68343303F5F4727B685B691946D8
:102810001046FFF73BFD7B68343303F5F6727B68A7
:102820001B6919461046FFF731FD7B681B6A5A1C6D
:102830007B681A637B6858787B6803F134017B6896
:102840001A6B0123FFF786FC7B6800221A717B68F4
:102850005B78002200211846FFF79CFC0346002B02
:1028600001D00123FB73FB7B18461037BD4680BDAA
:10287000525261417272416180B483B000AF78609E
:1028800039603B68023B3B607B689B69023B3A686E
:102890009A4201D3002308E07B685B891A463B68B3
:1028A00003FB02F27B68DB6A134418460C37BD4613
:1028B0005DF8047B704780B586B000AF7860396002
:1028C0007B681B683B613B68012B04D93B699B69B2
:1028D0003A689A4202D301237B618FE04FF0FF33C5
:1028E0007B613B691B78032B62D0032B7CDC012BC3
:1028F00002D0022B42D077E03B68FB60FB685B08AC
:10290000FA681344FB603B695A6AFB685B0A13442C
:1029100019463869FFF714FF0346002B67D1FB689F
:102920005A1CFA60C3F308033A69134493F834302D
:10293000BB603B695A6AFB685B0A134419463869F5
:10294000FFF7FEFE0346002B53D1FB68C3F30803D9
:102950003A69134493F834301B021A46BB68134398
:10296000BB603B6803F00103002B02D0BB681B096E
:1029700002E0BB68C3F30B037B613FE03B695A6A2B
:102980003B681B0A134419463869FFF7D9FE034612
:10299000002B30D13B6903F134023B685B0003F448
:1029A000FF7313441846FFF71BFC03467B6125E0C9
:1029B0003B695A6A3B68DB09134419463869FFF7DB
:1029C000BFFE0346002B18D13B6903F134023B687C
:1029D0009B0003F4FE7313441846FFF719FC0346EB
:1029E00023F070437B6109E001237B6106E000BFB7
:1029F00004E000BF02E000BF00E000BF7B691846B2
:102A00001837BD4680BD90B589B000AFF860B96099
:102A10007A600223FB77BB68012B40F2D280FB680F
:102A20009B69BA689A4280F0CC80FB681B78032BC4
:102A300000F09680032B00F3CD80012B02D0022BF7
:102A40006ED0C7E0BB68BB61BB695B08BA69134461
:102A5000BB61FB685A6ABB695B0A13441946F86894
:102A6000FFF76EFE0346FB77FB7F002B40F0AB8049
:102A7000FB6803F13402BB69591CB961C3F3080355
:102A800013447B61BB6803F00103002B0DD07B690D
:102A90001B785BB203F00F035AB27B68DBB21B01F9
:102AA0005BB213435BB2DBB201E07B68DBB27A69F5
:102AB0001370FB680122DA70FB685A6ABB695B0A13
:102AC00013441946F868FFF73BFE0346FB77FB7F8C
:102AD000002B7AD1FB6803F13402BB69C3F308030E
:102AE00013447B61BB6803F00103002B03D07B68B8
:102AF0001B09DBB20EE07B691B785BB223F00F038E
:102B00005AB27B681B0A5BB203F00F035BB213433C
:102B10005BB2DBB27A691370FB680122DA7059E0AC
:102B2000FB685A6ABB681B0A13441946F868FFF72A
:102B300007FE0346FB77FB7F002B48D1FB6803F1C0
:102B40003402BB685B0003F4FF7313447A6892B2EB
:102B500011461846FFF77FFBFB680122DA7039E067
:102B6000FB685A6ABB68DB0913441946F868FFF72B
:102B7000E7FD0346FB77FB7F002B2AD17B6823F020
:102B80007044FB6803F13402BB689B0003F4FE73DE
:102B900013441846FFF73CFB034603F070432343FE
:102BA0007B60FB6803F13402BB689B0003F4FE7397
:102BB000134479681846FFF769FBFB680122DA7055
:102BC00008E000BF06E000BF04E000BF02E000BF75
:102BD00000E000BFFB7F18462437BD4690BD80B59E
:102BE00088B000AFF860B9607A600023FB77FB68BB
:102BF0001B68BB61BB68012B04D9BB699B69BA68C0
:102C00009A4201D302234BE07B68002B0CD04FF09B
:102C1000FF327968B869FFF7F6FE0346FB77FB7F62
:102C2000002B01D0FB7F3BE0B968F868FFF743FE5B
:102C300078617B69002B31D07B69012B01D10223A4
:102C40002EE07B69B3F1FF3F01D1012328E0002290
:102C5000B968B869FFF7D7FE0346FB77FB7F002B07
:102C600001D0FB7F1CE0BB695A69BB699B69023BD1
:102C70009A420BD2BB695B695A1CBB695A61BB693A
:102C80001B7943F00103DAB2BB691A717B69BB603F
:102C9000BB699B69BA689A42C6D300E000BF0023B3
:102CA00018462037BD4680BD80B588B000AF78603B
:102CB00039607B681B683B613B68002B0DD13B6929
:102CC0001B69BB61BB69002B04D03B699B69BA6976
:102CD0009A421BD30123BB6118E039687868FFF77B
:102CE000EAFDF860FB68012B01D8012370E0FB6866
:102CF000B3F1FF3F01D1FB686AE03B699B69FA6869
:102D00009A4201D2FB6863E03B68BB61BB69FB612F
:102D1000FB690133FB613B699B69FA699A4207D3FE
:102D20000223FB61FA69BB699A4201D900234FE093
:102D3000F9697868FFF7BFFDF860FB68002B0ED0DB
:102D4000FB68012B03D0FB68B3F1FF3F01D1FB68A7
:102D50003EE0FA69BB699A42DAD1002338E000BF4D
:102D60004FF0FF32F9693869FFF74DFE0346FB75F6
:102D7000FB7D002B09D13B68002B06D0FA6939682E
:102D80003869FFF740FE0346FB75FB7D002B16D12B
:102D90003B69FA691A613B695A693B699B69023B65
:102DA0009A4204D83B695B695A1E3B695A613B6988
:102DB0001B7943F00103DAB23B691A7107E0FB7D2E
:102DC000012B02D14FF0FF3300E00123FB61FB69CF
:102DD00018462037BD4680BD80B487B000AF78600C
:102DE00039607B681B68FB607B68DB6A04333B618E
:102DF0003B685B0AFA685289B3FBF2F37B613B697B
:102E00001A1D3A611B68BB60BB68002B01D100230F
:102E100010E07A69BB689A4207D37A69BB68D31A13
:102E20007B613B6904333B61E9E700BF3B691A689A
:102E30007B69134418461C37BD465DF8047B704718
:102E400080B586B000AF786039607B681B683B61F5
:102E50003B68B3F5001F04D23B6803F01F03002B4F
:102E600001D0022363E07B683A685A617B689B6803
:102E70007B617B69002B06D13B691B78022B02D951
:102E80003B699B6A7B617B69002B0CD13B685B09CA
:102E90003A691289934201D3022348E03B699A6A56
:102EA0007B68DA6129E03B695B895B02FB6019E0C2
:102EB0007B6879691846FFF7FEFC78617B69B3F19E
:102EC000FF3F01D1012332E07B69012B04D93B692B
:102ED0009B697A699A4201D3022328E03A68FB6829
:102EE000D31A3B603A68FB689A42E1D27969386943
:102EF000FFF7C2FC02467B68DA617B687A699A61F7
:102F00007B68DB69002B01D1022310E07B68DA6962
:102F10003B685B0A1A447B68DA613B6903F134025F
:102F20003B68C3F308031A447B681A6200231846FF
:102F30001837BD4680BD80B586B000AF7860396077
:102F40007B681B68FB607B685B692033BB607B68C8
:102F5000DB69002B03D0BB68B3F5001F01D304234A
:102F6000AAE0BB68C3F30803002B40F098807B689D
:102F7000DB695A1C7B68DA617B689B69002B0BD18B
:102F8000BB685B09FA6812899342C0F088807B684D
:102F90000022DA6104238FE0BB685B0AFA68528979
:102FA000013A1340002B7AD17A687B689B691946F5
:102FB0001046FFF780FC78617B69012B01D8022362
:102FC0007AE07B69B3F1FF3F01D1012374E0FB6834
:102FD0009B697A699A4258D33B68002B04D17B687D
:102FE0000022DA61042367E07A687B689B691946EE
:102FF0001046FFF759FE78617B69002B01D107234A
:103000005AE07B69012B01D1022355E07B69B3F1C2
:10301000FF3F01D101234FE0F868FFF74DFB034666
:10302000002B01D0012347E0FB6834334FF40072DA
:1030300000211846FFF777F900233B617969F868AA
:10304000FFF71AFC0246FB681A6312E0FB680122D4
:10305000DA70F868FFF730FB0346002B01D001233C
:103060002AE03B6901333B61FB681B6B5A1CFB6820
:103070001A63FB685B891A463B699342E6D3FB6897
:103080001A6B3B69D21AFB681A637B687A699A618A
:103090007969F868FFF7F0FB02467B68DA617B68C4
:1030A000BA685A61FB6803F13402BB68C3F30803D2
:1030B0001A447B681A62002318461837BD4680BD43
:1030C00080B586B000AF786039607B681B68FB60B4
:1030D00000217868FFF7B4FE0346FB75FB7D002BEB
:1030E0002BD100233B617B68DB691946F868FFF749
:1030F00027FB0346FB75FB7D002B1DD17B681B6AFC
:103100001B78E52B04D07B681B6A1B78002B07D14A
:103110003B6901333B613A693B689A4202D10CE05A
:1031200000233B6101217868FFF705FF0346FB752B
:10313000FB7D002BD7D000E000BFFB7D042B01D12D
:103140000723FB75FB7D18461837BD4680BD80B54B
:1031500084B000AF786039603B681A331846FFF7D7
:103160003FF80346FB607B681B78032B09D13B6863
:1031700014331846FFF734F803461B04FA68134368
:10318000FB60FB6818461037BD4680BD80B584B033
:1031900000AFF860B9607A60BB681A337A6892B29F
:1031A00011461846FFF757F8FB681B78032B09D127
:1031B000BB6803F114027B681B0C9BB219461046D6
:1031C000FFF749F800BF1037BD4680BD90B587B006
:1031D00000AF786039603B681A331846FFF700F893
:1031E0000346002B01D0002359E03B681B7803F015
:1031F0003F035A1E13465B0013449B0013447B613C
:103200000123FB8100233B6133E0274A3B691344E0
:103210001B781A463B6813441846FEF7E1FF034645
:10322000BB81FB89002B1AD07B69FE2B12D8BB898E
:10323000184602F029FF03461C467B695A1C7A6136
:103240005B007A6813441B88184602F01DFF034692
:103250009C4201D0002322E0BB89FB8106E0BB89B0
:103260004FF6FF72934201D0002318E03B6901330F
:103270003B613B690C2BC8D93B681B7803F04003CA
:10328000002B0BD0FB89002B08D07B695B007A6890
:1032900013441B88002B01D0002300E001231846B3
:1032A0001C37BD4690BD00BF78BE000880B586B013
:1032B00000AF786039603B681A331846FEF790FF1C
:1032C0000346002B01D000234DE03B681B7823F020
:1032D00040035A1E13465B0013449B0013447B615A
:1032E0000123FB8100233B6128E0214A3B69134411
:1032F0001B781A463B6813441846FEF771FF0346D5
:10330000BB81FB89002B0FD07B69FE2B01D90023E9
:1033100029E0BB89FB817B695A1C7A615B007A6872
:103320001344FA891A8006E0BB894FF6FF72934274
:1033300001D0002317E03B6901333B613B690C2B53
:10334000D3D93B681B7803F04003002B0AD07B697C
:10335000FE2B01D9002306E07B695B007A681344E9
:1033600000221A80012318461837BD4680BD00BFD1
:1033700078BE000880B588B000AFF860B96011462B
:103380001A460B46FB711346BB71BB680D33BA7905
:103390001A70BB680B330F221A70BB680C33002203
:1033A0001A70BB681A3300211846FEF754FFFB79E8
:1033B0005A1E13465B0013449B001344FB61002319
:1033C000FB820023BB61FB8A4FF6FF72934207D05A
:1033D000FB695A1CFA615B00FA6813441B88FB8284
:1033E000174ABB6913441B781A46BB681344FA8A10
:1033F00011461846FEF72FFFFB8A002B02D14FF62D
:10340000FF73FB82BB690133BB61BB690C2BDAD94B
:10341000FB8A4FF6FF72934206D0FB695B00FA68A5
:1034200013441B88002B03D1FB7943F04003FB714D
:10343000BB68FA791A7000BF2037BD4680BD00BF57
:1034400078BE000880B58CB000AFF860B9607A60D3
:103450003B600B22B968F868FEF744FF3B68052B18
:103460002BD93B68FB6122E07B689A1C7A601B8841
:103470007B840023BB6217E0FB695A007B8C03F05E
:1034800001031344FB617B8C5B087B84FB6903F4C1
:103490008033002B05D0FB6983F4883383F021034C
:1034A000FB61BB6A0133BB62BB6A0F2BE4D97B684B
:1034B0001B88002BD8D1FB693B600723BB623B68AC
:1034C000DBB203F00F03DBB2303387F82F3097F80D
:1034D0002F30392B04D997F82F30073387F82F3046
:1034E000BB6A5A1EBA6207F13002134497F82F20C4
:1034F00003F81C2C3B681B093B603B68002BDED1AA
:1035000007F11402BB6A13447E221A7000237B6207
:1035100002E07B6A01337B627A6ABB6A9A4205D217
:10352000FA687B6A13441B78202BF2D1BB6A072B05
:1035300008D8BB6A5A1CBA6207F13002134413F868
:103540001C1C00E020217B6A5A1C7A62FA68134432
:103550000A461A707B6A072BE8D900BF00BF3037D4
:10356000BD4680BD80B485B000AF78600023FB739A
:103570000B23BB60FB7BDAB25208DB011343DAB2E8
:103580007B68591C79601B781344FB73BB68013B53
:10359000BB60BB68002BEDD1FB7B18461437BD46E2
:1035A0005DF8047B704780B586B000AF7860396005
:1035B0000423FB757B681B683B61FF237B75FF233E
:1035C0003B7581E07B68DB6919463869FFF7B8F81D
:1035D0000346FB75FB7D002B7CD17B681B6A1B7847
:1035E000BB75BB7D002B02D10423FB7577E07B68A4
:1035F0001B6A0B331B7803F03F03FB737B68FA7B7A
:103600009A71BB7DE52B0ED0BB7D2E2B0BD0FB7BA7
:1036100023F02003082B0CBF01230023DBB21A4642
:103620003B68934202D0FF237B7544E0FB7B0F2B6A
:103630002FD1BB7D03F04003002B0DD07B681B6AAC
:103640005B7B3B75BB7D23F04003BB75BB7D7B750E
:103650007B685A697B681A63BA7D7B7D9A4215D173
:103660007B681B6A0D331B783A7D9A420ED13B6909
:10367000DA687B681B6A19461046FFF717FE034697
:10368000002B03D07B7D013BDBB200E0FF237B7589
:1036900011E07B7D002B09D17B681B6A1846FFF780
:1036A00061FF03461A463B7D934215D07B684FF07D
:1036B000FF321A6310E000217868FFF73CFC0346F4
:1036C000FB75FB7D002B09D17B68DB69002B7FF448
:1036D00079AF04E000BF02E000BF00E000BFFB7D67
:1036E000002B02D07B680022DA61FB7D1846183778
:1036F000BD4680BD80B586B000AF78607B681B6832
:103700003B6100217868FFF79BFB0346FB75FB7D5F
:10371000002B01D0FB7DA9E0FF233B753B7D7B7532
:103720007B684FF0FF321A637B68DB6919463869A2
:10373000FFF706F80346FB75FB7D002B40F09080F9
:103740007B681B6A1B78BB75BB7D002B02D10423F1
:10375000FB758AE07B681B6A0B331B7803F03F0321
:10376000FB737B68FA7B9A71BB7DE52B07D0FB7BF3
:1037700003F00803002B09D0FB7B0F2B06D0FF239F
:103780007B757B684FF0FF321A635EE0FB7B0F2B8B
:1037900036D17B6893F82F3003F04003002B54D1CF
:1037A000BB7D03F04003002B0DD07B681B6A5B7B65
:1037B0003B75BB7D23F04003BB75BB7D7B757B6890
:1037C0005A697B681A63BA7D7B7D9A4215D17B6802
:1037D0001B6A0D331B783A7D9A420ED13B69DA6839
:1037E0007B681B6A19461046FFF7F0FC0346002B66
:1037F00003D07B7D013BDBB200E0FF237B7524E03F
:103800007B7D002B09D17B681B6A1846FFF7AAFE57
:1038100003461A463B7D934224D07B6893F82F30B1
:1038200003F00103002B0AD17B68186A7B682433FC
:103830000B221946FEF792FD0346002B14D0FF23FE
:103840007B757B684FF0FF321A6300217868FFF7C1
:1038500072FB0346FB75FB7D002B3FF465AF04E074
:1038600000BF02E000BF00E000BFFB7D1846183734
:10387000BD4680BD80B58CB000AF78607B681B68AA
:10388000FB617B6893F82F3003F0A003002B01D07D
:103890000623E0E000237B6202E07B6A01337B6267
:1038A000FB69DA687B6A5B0013441B88002BF4D148
:1038B0007B6803F1240107F10C030C221846FEF784
:1038C00011FDFB7D03F00103002B32D07B68402209
:1038D00083F82F200123BB6216E07B6803F12400EC
:1038E000FB69DA6807F10C01BB6AFFF7ABFD78688A
:1038F000FFF700FF034687F82F3097F82F30002B93
:1039000006D1BB6A0133BB62BB6A632BE5D900E019
:1039100000BFBB6A642B01D107239CE097F82F30CE
:10392000042B02D097F82F3095E0FA7D7B6883F85E
:103930002F20FB7D03F00203002B07D07B6A0C33A2
:10394000474AA2FB03239B08013300E001233B62AB
:10395000396A7868FFF7B4FB034687F82F3097F889
:103960002F30002B48D13B6A013B3B623B6A002B66
:1039700042D07B685A693B6A5B01D31A1946786862
:10398000FFF75EFA034687F82F3097F82F30002BA9
:1039900032D17B6824331846FFF7E4FD0346FB76FB
:1039A0007B68DB691946F869FEF7CAFE034687F8AB
:1039B0002F3097F82F30002B1DD1FB69D8687B681A
:1039C000196A3B6ADAB2FB7EFFF7D4FCFB6901227D
:1039D000DA7000217868FFF7AEFA034687F82F30D7
:1039E00097F82F30002B07D13B6A013B3B623B6AC3
:1039F000002BD5D100E000BF97F82F30002B28D145
:103A00007B68DB691946F869FEF79AFE034687F87A
:103A10002F3097F82F30002B1BD17B681B6A202298
:103A200000211846FEF77FFC7B68186A7B68243308
:103A30000B221946FEF756FC7B6893F82F207B6813
:103A40001B6A0C3302F01802D2B21A70FB69012211
:103A5000DA7097F82F3018463037BD4680BD00BF6A
:103A60004FECC44E80B588B000AF786039607B6899
:103A70001B683B613B6800229A757B68DB69002B01
:103A800000F0C9807B681B6BB3F1FF3F32D000238D
:103A9000BB61BB69FB611BE0FB890021184602F09A
:103AA000B7FA0346FB81FB89002B02D10023FB619F
:103AB0001AE0FB69FE2B02D90023FB6114E0FB69CD
:103AC0005A1CFA61FA89D1B23A6813440A469A75C7
:103AD0003B69DA68BB69591CB9615B0013441B88F8
:103AE000FB81FB89002BD7D13A68FB69134416335D
:103AF00000221A700023BB61BB69FB613A68FB6955
:103B0000134416331B78BB814CE07B681A6AFB694F
:103B1000591CF96113441B78FB75FB7D202B00D1E8
:103B200040E0FB7D052B01D1E523FB75FB69092BEB
:103B30000FD1BB89002B05D13A68BB6913441633FA
:103B40002E221A70BB695A1CBA613A6813442E229D
:103B50005A723A68BB6913440933FA7D1A70BB89FB
:103B6000002B1CD1FB7D402B13D9FB7D5A2B10D889
:103B70007B681B6A0C331B781A46FB69082B01D93A
:103B8000102300E008231340002B02D0FB7D2033DC
:103B9000FB753A68BB6913441633FA7D1A70BB692A
:103BA0000133BB61FB690A2BAFD9BB89002B0DD157
:103BB0003A68BB691344163300221A707B681B6A8B
:103BC0000C331B78002B01D10023BB613A68BB6921
:103BD0001344093300221A707B681B6ADA7A3B6847
:103BE0001A727B681B6A1C331846FEF711FB0246EB
:103BF0003B681A607B681B6A16331846FEF708FBA1
:103C0000B860BB689AB23B68DA80BB681B0C9AB29A
:103C10003B689A8000E000BF2037BD4680BD0000B1
:103C200080B58AB000AF786039603B681B683B6143
:103C30007B681B68DB68FB6000237B617B69BB6181
:103C4000BB695A1CBA613A6913441B78BB84BB8CAC
:103C50001F2B40D9BB8C2F2B06D0BB8C5C2B10D1DB
:103C600002E0BB690133BB613A69BB6913441B784D
:103C70002F2BF6D03A69BB6913441B785C2BF0D02C
:103C80002AE07B69FE2B01D9062377E1BB8CDBB2EE
:103C9000BB84BB8C0121184602F0BAF90346BB84F1
:103CA000BB8C002B01D1062368E1BB8C7F2B09D88C
:103CB000BB8C1946B348FEF778FB0346002B01D0B6
:103CC00006235BE17B695A1C7A615B00FA68134446
:103CD000BA8C1A80B4E700BF3A69BB691A443B68E2
:103CE0001A60BB8C1F2B01D8042300E0002387F847
:103CF000273011E07B6903F10043013B5B00FA6868
:103D000013441B88BB84BB8C202B02D0BB8C2E2B76
:103D100006D17B69013B7B617B69002BEAD100E026
:103D200000BF7B695B00FA68134400221A807B693C
:103D3000002B01D1062321E17B6824330B222021B3
:103D40001846FEF7F0FA0023BB6102E0BB690133BD
:103D5000BB61BB695B00FA6813441B88202BF5D05C
:103D6000BB695B00FA6813441B882E2BEED0BB693D
:103D7000002B09D097F8273043F0030387F827304A
:103D800002E07B69013B7B617B69002B09D07B6989
:103D900003F10043013B5B00FA6813441B882E2BA0
:103DA000EFD1002387F8263000233B620823FB6114
:103DB000BB695A1CBA615B00FA6813441B88BB8458
:103DC000BB8C002B00F09080BB8C202B06D0BB8CD2
:103DD0002E2B0AD1BA697B699A4206D097F8273010
:103DE00043F0030387F827307DE03A6AFB699A4283
:103DF00003D2BA697B699A4223D1FB690B2B06D1A6
:103E000097F8273043F0030387F827306FE0BA694B
:103E10007B699A4205D097F8273043F0030387F86F
:103E20002730BA697B699A4260D87B69BB610823F5
:103E30003B620B23FB6197F826309B0087F8263006
:103E400051E0BB8C7F2B14D9BB8C0021184602F0AB
:103E5000DFF80346BB84BB8C002B04D0BB8C803BBB
:103E6000494AD35CBB8497F8273043F0020387F8B4
:103E70002730BB8C002B07D0BB8C19464348FEF77C
:103E800094FA0346002B08D05F23BB8497F82730B1
:103E900043F0030387F827301BE0BB8C402B09D984
:103EA000BB8C5A2B06D897F8263043F0020387F8CC
:103EB00026300EE0BB8C602B0BD9BB8C7A2B08D83C
:103EC00097F8263043F0010387F82630BB8C203B5F
:103ED000BB843B6A5A1C3A62BA8CD1B27A681344EA
:103EE0000A4683F8242063E700BF00E000BF7B6838
:103EF00093F82430E52B03D17B68052283F8242036
:103F0000FB69082B04D197F826309B0087F82630F0
:103F100097F8263003F00C030C2B05D097F82630C9
:103F200003F00303032B05D197F8273043F0020376
:103F300087F8273097F8273003F00203002B17D1BA
:103F400097F8263003F00303012B05D197F82730AB
:103F500043F0100387F8273097F8263003F00C035E
:103F6000042B05D197F8273043F0080387F8273052
:103F70007B6897F8272083F82F20002318462837DE
:103F8000BD4680BD84BD0008F8BD000890BD000896
:103F900080B586B000AF786039607B683B613B6973
:103FA0001B68FB6002E03B6801333B603B681B78A9
:103FB0002F2BF8D03B681B785C2BF4D03B69002298
:103FC0009A603B681B781F2B0AD87B68802283F895
:103FD0002F2000217868FEF733FF0346FB7543E08E
:103FE0003B4619467868FFF71BFE0346FB75FB7DD1
:103FF000002B34D17868FFF77DFB0346FB757B68A7
:1040000093F82F30FB72FB7D002B0AD0FB7D042B35
:1040100027D1FB7A03F00403002B22D10523FB7583
:104020001FE0FB7A03F00403002B1CD13B699B7952
:1040300003F01003002B02D10523FB7514E0FB688D
:1040400003F134027B685B69C3F308031344194628
:10405000F868FFF77CF802463B699A60C0E700BF4A
:1040600002E000BF00E000BFFB7D18461837BD46E8
:1040700080BD80B487B000AF78604FF0FF333B6104
:104080007B681B68002B31D07B681B687B6102E07A
:104090007B6901337B617B691B781F2B03D97B69AB
:1040A0001B783A2BF4D17B691B783A2B1CD17B68A7
:1040B0001B68FB60FB685A1CFA601B78303BBB60D6
:1040C000BB68092B0ED8FA687B699A420AD1BB6893
:1040D000012B07D8BB683B617B6901337B617B683F
:1040E0007A691A603B6902E000233B613B6918462C
:1040F0001C37BD465DF8047B7047000080B582B078
:1041000000AF786039607B680022DA707B684FF01E
:10411000FF321A6339687868FEF712FB0346002BFA
:1041200001D0042338E07B68343303F5FF7318466D
:10413000FEF756F803461A464AF655239A4201D02E
:10414000032329E07B6893F83430E92B09D07B689E
:1041500093F83430EB2B1ED17B6893F83630902BDC
:1041600019D17B68343336331846FEF751F80346CD
:1041700023F07F430A4A934201D100230CE07B687D
:10418000343352331846FEF743F80346054A934248
:1041900001D1002300E0022318460837BD4680BD48
:1041A000464154004641543380B596B000AFF860A4
:1041B000B9601346FB71BB6800221A60F868FFF70C
:1041C00058FFF863FB6B002B01DA0B232EE2A84AA1
:1041D000FB6B52F82330BB63BB6B002B01D10C236C
:1041E00024E2BB68BA6B1A60FB7923F00103FB7110
:1041F000BB6B1B78002B1AD0BB6B5B781846FDF7A6
:1042000049FF034687F8373097F8373003F001034A
:10421000002B0CD1FB79002B07D097F8373003F037
:104220000403002B01D00A2300E20023FEE1BB6B54
:1042300000221A70FB6BDAB2BB6B5A70BB6B5B78F7
:104240001846FDF741FF034687F8373097F83730B7
:1042500003F00103002B01D00323E7E1FB79002BDE
:1042600007D097F8373003F00403002B01D00A235E
:10427000DCE100233B65396DB86BFFF73FFF034678
:1042800087F8573097F85730022B4BD100233B6407
:104290001FE0BB6B03F134023B6C1B0103F5DF73C2
:1042A00013443B633B6B04331B78002B06D03B6B02
:1042B00008331846FDF7ACFF024600E000223B6CD5
:1042C0009B0007F158010B4443F8442C3B6C01332D
:1042D0003B643B6C032BDCD900233B643B6C002B21
:1042E00002D03B6C013B3B643B6C9B0007F15802E6
:1042F000134453F8443C3B653B6D002B05D0396DAE
:10430000B86BFFF7FBFE034600E0032387F8573046
:1043100097F85730012B05D93B6C01333B643B6C5C
:10432000032BE1D997F85730042B01D101237DE10C
:1043300097F85730012B01D90D2377E1BB6B34334C
:104340000B331846FDF74CFF0346B3F5007F01D051
:104350000D236BE1BB6B343316331846FDF740FF7A
:104360000346FB64FB6C002B06D1BB6B3433243358
:104370001846FDF74DFFF864BB6BFA6CDA61BB6B56
:1043800093F84420BB6B9A70BB6B9B78012B05D0D4
:10439000BB6B9B78022B01D00D2347E1BB6B9B7855
:1043A0001A46FB6C02FB03F3FB64BB6B93F84130D2
:1043B0009AB2BB6B5A81BB6B5B89002B08D0BB6B7D
:1043C0005B891A46BB6B5B89013B1340002B01D014
:1043D0000D232BE1BB6B343311331846FDF700FF7F
:1043E00003461A46BB6B1A81BB6B1B8903F00F0394
:1043F0009BB2002B01D00D2318E1BB6B3433133378
:104400001846FDF7EDFE0346BB64BB6C002B06D1DE
:10441000BB6B343320331846FDF7FAFEB864BB6B30
:1044200034330E331846FDF7DBFE0346FB85FB8D68
:10443000002B01D10D23F9E0FA8DFB6C1344BA6B0C
:104440001289120992B21344BB62BA6CBB6A9A42D7
:1044500001D20D23EAE0BA6CBB6AD31ABA6B528957
:10446000B3FBF2F37B627B6A002B03D10D23DDE00B
:10447000C4020020032387F857307B6A4FF6F57299
:10448000934202D8022387F857307B6A40F6F572D0
:10449000934202D8012387F857307B6A9A1CBB6B82
:1044A0009A61BB6B3A6D1A62FA8D3B6D1A44BB6B15
:1044B0005A623A6DBB6A1A44BB6BDA6297F857309E
:1044C000032B1ED1BB6B34332A331846FDF788FE0D
:1044D0000346002B01D00D23A8E0BB6B1B89002BEA
:1044E00001D00D23A2E0BB6B34332C331846FDF70B
:1044F0008FFE0246BB6B9A62BB6B9B699B007B6421
:104500001FE0BB6B1B89002B01D10D238EE0BB6B21
:104510005A6AFB6C1A44BB6B9A6297F85730022BAD
:1045200003D1BB6B9B695B000AE0BB6B9A691346C6
:104530005B0013445A08BB6B9B6903F001031344EF
:104540007B64BB6BDA697B6C03F2FF135B0A9A42F4
:1045500001D20D236AE0BB6B4FF0FF325A61BB6B97
:104560005A69BB6B1A61BB6B80221A7197F857307E
:10457000032B49D1BB6B343330331846FDF730FE83
:104580000346012B40D13B6D01331946B86BFEF752
:10459000D7F80346002B37D1BB6B00221A71BB6BD7
:1045A000343303F5FF731846FDF71AFE03461A4627
:1045B0004AF655239A4227D1BB6B34331846FDF790
:1045C00027FE03461B4A93421ED1BB6B343303F5CF
:1045D000F2731846FDF71CFE0346174A934213D1A7
:1045E000BB6B343303F5F4731846FDF711FE024636
:1045F000BB6B5A61BB6B343303F5F6731846FDF79A
:1046000007FE0246BB6B1A61BB6B97F857201A7006
:104610000A4B1B8801339AB2084B1A80074B1A8841
:10462000BB6BDA80B86BFEF723F8002318465837C7
:10463000BD4680BD5252614172724161CC02002080
:1046400080B584B000AF786039600923FB737B6864
:10465000002B1CD07B681B68002B18D07B681B6864
:104660001B78002B13D07B689A887B681B68DB88DB
:104670009A420CD17B681B685B781846FDF70AFDEF
:10468000034603F00103002B01D10023FB73FB7BE6
:10469000002B02D17B681B6800E000233A6813609E
:1046A000FB7B18461037BD4680BD000080B588B042
:1046B00000AFF860B9601346FB71BB683B6107F15E
:1046C00010031846FFF7D5FCF861FB69002B01DAEF
:1046D0000B232BE0174AFB6952F82330BB61BB69FF
:1046E000002B05D0B869FDF7C3FFBB6900221A7023
:1046F000FB68002B02D0FB6800221A70FA680D4993
:10470000FB6941F82320FB68002B02D0FB79012BC9
:1047100001D000230AE007F10C0107F10803002291
:104720001846FFF741FD0346FB75FB7D1846203711
:10473000BD4680BDC402002080B5ADF51A7D00AF36
:1047400007F10C03186007F108031960FB1D1A70CC
:1047500007F10C031B68002B01D1092331E2FB1D7B
:10476000FA1D127802F03F021A70FB1D1A7807F545
:10477000057107F108031846FFF716FD034687F891
:10478000673297F86732002B40F01082D7F8143266
:10479000C7F81832D7F8143207F11402DA6007F1BB
:1047A00008031A6807F5067311461846FFF7F0FB71
:1047B000034687F8673297F86732002B1BD197F8CA
:1047C00047325BB2002B03DA062387F8673212E028
:1047D000FB1D1B7823F00103002B14BF01230023D2
:1047E000DBB21A4607F5067311461846FDF7F8FDC9
:1047F000034687F86732FB1D1B7803F01C03002B70
:1048000000F09B8097F86732002B19D097F8673239
:10481000042B0ED1FDF740FE0346002B06D007F512
:1048200006731846FFF726F8034600E0122387F8C0
:104830006732FB1DFA1D127842F008021A7012E06E
:1048400097F81E3203F01103002B03D0072387F8DB
:10485000673208E0FB1D1B7803F00403002B02D035
:10486000082387F8673297F86732002B40F0828080
:10487000FB1D1B7803F00803002B7BD0FDF7A8FC81
:10488000C7F85802D7F838320E33D7F858121846FE
:10489000FDF7FCFCD7F838321633D7F85812184613
:1048A000FDF7F4FCD7F838320B3320221A70D7F812
:1048B0001432D7F8382211461846FEF748FCC7F8DC
:1048C0005402D7F81432D7F8381200221846FEF7EF
:1048D0005DFCD7F838321C3300211846FDF7D6FCB2
:1048E000D7F814320122DA70D7F85432002B41D0B5
:1048F000D7F814321B6BC7F8583207F5067300223D
:10490000D7F854121846FEF76AF9034687F867325B
:1049100097F86732002B2DD1D7F81432D7F85812F8
:104920001846FDF70DFF034687F86732D7F81432B3
:10493000D7F85422013A1A611CE097F86732002B2D
:1049400018D197F81E3203F01003002B03D0042374
:1049500087F867320EE0FB1D1B7803F00203002B83
:1049600008D097F81E3203F00103002B02D0072372
:1049700087F8673297F86732002B36D1FB1D1B781A
:1049800003F00803002B05D0FB1DFA1D127842F03E
:1049900040021A70D7F814321A6B07F10C031B6827
:1049A0005A62D7F8382207F10C031B689A62FB1D84
:1049B0001B7823F00103002B14BF01230023DBB27B
:1049C0001A4607F5067311461846FDF787FD02469D
:1049D00007F10C031B681A6107F10C031B681B69C4
:1049E000002B02D1022387F8673297F86732002B39
:1049F00040F0DC80D7F81432D7F838221146184638
:104A0000FEF7A5FB024607F10C031B689A60D7F876
:104A100038321C331846FDF7FBFB024607F10C0346
:104A20001B68DA6007F10C031B680022DA62D7F812
:104A3000142207F10C031B681A60D7F81432DA88C5
:104A400007F10C031B689A8007F10C031B68FA1D21
:104A500012781A7507F10C031B6800225A7507F1CA
:104A60000C031B6800221A6207F10C031B6800226A
:104A70009A6107F10C031B6830334FF40072002178
:104A80001846FDF750FCFB1D1B7803F02003002B9C
:104A900000F08C8007F10C031B68DB68002B00F032
:104AA000858007F10C031B68DA6807F10C031B68AB
:104AB0009A61D7F814325B895B02C7F8503207F16C
:104AC0000C031B689B68C7F8603207F10C031B6876
:104AD000DB68C7F85C321FE007F10C031B68D7F8EE
:104AE00060121846FDF7E7FEC7F86002D7F860329B
:104AF000012B02D8022387F86732D7F86032B3F16E
:104B0000FF3F02D1012387F86732D7F85C22D7F83C
:104B10005032D31AC7F85C3297F86732002B05D1B0
:104B2000D7F85C22D7F850329A42D5D807F10C0357
:104B30001B68D7F86022DA6197F86732002B35D10D
:104B4000D7F85C32C3F30803002B2FD0D7F8143208
:104B5000D7F860121846FDF78FFEC7F84C02D7F859
:104B60004C32002B03D1022387F867321EE0D7F8BE
:104B70005C325A0AD7F84C321A4407F10C031B680E
:104B80001A62D7F81432587807F10C031B6803F146
:104B9000300107F10C031B681A6A0123FDF7BAFA0A
:104BA0000346002B02D0012387F8673297F867325B
:104BB000002B04D007F10C031B6800221A6097F841
:104BC0006732184607F51A77BD4680BD80B58EB0AE
:104BD00000AFF860B9607A603B60BB687B623B689D
:104BE00000221A60FB6807F1140211461846FFF70D
:104BF00027FD034687F8373097F83730002B07D169
:104C0000FB685B7D87F8373097F83730002B02D090
:104C100097F8373015E1FB681B7D03F00103002B8B
:104C200001D107230DE1FB68DA68FB689B69D31AA1
:104C30003B627A683B6A9A4240F2FE803B6A7B6044
:104C4000FAE0FB689B69C3F30803002B40F0C680C1
:104C5000FB689B695B0A7A695289013A1340FB61E0
:104C6000FB69002B2FD1FB689B69002B03D1FB68EC
:104C70009B683B6313E0FB68DB6A002B07D0FB6893
:104C80009B691946F868FEF7A7F8386307E0FA68E9
:104C9000FB68DB6919461046FDF70DFE38633B6B78
:104CA000012B04D8FB6802225A750223C9E03B6B32
:104CB000B3F1FF3F04D1FB6801225A750123C0E024
:104CC000FB683A6BDA617A69FB68DB691946104662
:104CD000FDF7D2FDB861BB69002B04D1FB6802224D
:104CE0005A750223ADE0BA69FB691344BB617B6866
:104CF0005B0ABB62BB6A002B39D0FA69BB6A1344FA
:104D00007A695289934205D97B695B891A46FB69A6
:104D1000D31ABB627B695878BB6ABA69796AFDF7B6
:104D2000F9F90346002B04D0FB6801225A750123D0
:104D300087E0FB681B7D5BB2002B14DAFB681A6A04
:104D4000BB69D31ABA6A9A420DD9FB681A6ABB6961
:104D5000D31A5B027A6AD018FB6830334FF40072C2
:104D60001946FDF7BFFABB6A5B02FB6250E0FB68C5
:104D70001B6ABA699A422ED0FB681B7D5BB2002B7E
:104D800018DA7B695878FB6803F13001FB681A6A0E
:104D90000123FDF7DFF90346002B04D0FB68012255
:104DA0005A7501234DE0FB681B7D03F07F03DAB2E7
:104DB000FB681A757B695878FB6803F130010123A1
:104DC000BA69FDF7A7F90346002B04D0FB6801225E
:104DD0005A75012335E0FB68BA691A62FB689B6962
:104DE000C3F30803C3F50073FB62FA6A7B689A4257
:104DF00001D97B68FB62FB6803F13002FB689B69A9
:104E0000C3F308031344FA6A1946786AFDF76AFA8D
:104E10007A6AFB6A13447B62FB689A69FB6A1A44EC
:104E2000FB689A613B681A68FB6A1A443B681A601F
:104E30007A68FB6AD31A7B607B68002B7FF401AF32
:104E4000002318463837BD4680BD80B58CB000AF12
:104E5000F860B9607A603B60BB68FB613B68002228
:104E60001A60FB6807F1100211461846FFF7E8FBCD
:104E7000034687F82F3097F82F30002B07D1FB68B7
:104E80005B7D87F82F3097F82F30002B02D097F8F2
:104E90002F304BE1FB681B7D03F00203002B01D197
:104EA000072343E1FB689A697B681A44FB689B69A6
:104EB0009A4280F02D81FB689B69DB437B6027E190
:104EC000FB689B69C3F30803002B40F0E380FB6899
:104ED0009B695B0A3A695289013A1340BB61BB691D
:104EE000002B43D1FB689B69002B0CD1FB689B68AE
:104EF000BB62BB6A002B1AD1FB6800211846FDF784
:104F0000D3FEB86213E0FB68DB6A002B07D0FB68B6
:104F10009B691946F868FDF75FFFB86207E0FA6819
:104F2000FB68DB6919461046FDF7BEFEB862BB6A36
:104F3000002B00F0F280BB6A012B04D1FB68022237
:104F40005A750223F2E0BB6AB3F1FF3F04D1FB685C
:104F500001225A750123E9E0FB68BA6ADA61FB684D
:104F60009B68002B02D1FB68BA6A9A60FB681B7DC4
:104F70005BB2002B18DA3B695878FB6803F130010B
:104F8000FB681A6A0123FDF7E5F80346002B04D0FD
:104F9000FB6801225A750123C8E0FB681B7D03F002
:104FA0007F03DAB2FB681A753A69FB68DB69194658
:104FB0001046FDF761FC78617B69002B04D1FB682A
:104FC00002225A750223B1E07A69BB6913447B61FE
:104FD0007B685B0A3B623B6A002B3CD0BA693B6A48
:104FE00013443A695289934205D93B695B891A4651
:104FF000BB69D31A3B623B6958783B6A7A69F969A5
:10500000FDF7A8F80346002B04D0FB6801225A756F
:1050100001238BE0FB681A6A7B69D31A3A6A9A42C9
:1050200015D9FB6803F13000FB681A6A7B69D31A53
:105030005B02FA6913444FF400721946FDF752F906
:10504000FB681B7D03F07F03DAB2FB681A753B6ACD
:105050005B027B623FE0FB681B6A7A699A4216D06A
:10506000FB689A69FB68DB689A4210D23B69587802
:10507000FB6803F1300101237A69FDF74BF8034621
:10508000002B04D0FB6801225A7501234EE0FB6817
:105090007A691A62FB689B69C3F30803C3F500735E
:1050A0007B627A6A7B689A4201D97B687B62FB6883
:1050B00003F13002FB689B69C3F3080313447A6A67
:1050C000F9691846FDF70EF9FB681B7D63F07F0355
:1050D000DAB2FB681A75FA697B6A1344FB61FB68F4
:1050E0009A697B6A1A44FB689A61FB68DA68FB6814
:1050F0009B699A4238BF1A46FB68DA603B681A68B7
:105100007B6A1A443B681A607A687B6AD31A7B60B0
:105110007B68002B7FF4D4AE00E000BFFB681B7DF2
:1051200043F04003DAB2FB681A75002318463037A3
:10513000BD4680BD80B586B000AF78607B6807F162
:10514000080211461846FFF77BFA0346FB75FB7D04
:10515000002B68D17B681B7D03F04003002B62D0DD
:105160007B681B7D5BB2002B15DABB6858787B68C7
:1051700003F130017B681A6A0123FCF7EBFF034659
:10518000002B01D001234FE07B681B7D03F07F03E0
:10519000DAB27B681A75FDF71BF83861BA687B686C
:1051A0005B6A19461046FDF7CBFA0346FB75FB7D9B
:1051B000002B38D17B689B6AFB60FB680B331A7845
:1051C000FB680B3342F02002D2B21A707B68186879
:1051D0007B689B681A46F968FDF7D8FFFB6803F106
:1051E0001C027B68DB6819461046FDF74FF8FB6828
:1051F000163339691846FDF749F8FB681233002168
:105200001846FDF728F8BB680122DA70BB6818461B
:10521000FDF7C4FA0346FB757B681B7D23F0400352
:10522000DAB27B681A75FB7D18461837BD4680BD1B
:1052300080B584B000AF78607868FFF77BFF0346E5
:10524000FB73FB7B002B18D17B6807F1080211462A
:105250001846FFF7F5F90346FB73FB7B002B0CD1D7
:105260007B681B691846FDF7C7F90346FB73FB7B98
:10527000002B02D17B6800221A60FB7B1846103796
:10528000BD4680BD80B590B000AF786039607B6866
:1052900007F1080211461846FFF7D2F9034687F8CE
:1052A0003F3097F83F30002B03D17B685B7D87F858
:1052B0003F3097F83F30002B02D097F83F30E6E1BF
:1052C0007B68DB6A002B00F0D1803B68B3F1FF3FC5
:1052D0005AD17B68DB6A7B627B6A1A1D7A621B6823
:1052E0007B610223BB627B689B683B633B6B002B4B
:1052F0003AD03B6B3B610023FB62BB6A0233BB626B
:105300003B6BFB60FB6A0133FB627B68396B1846C1
:10531000FDF7D1FA38633B6B012B04D87B6802227E
:105320005A750223B3E13B6BB3F1FF3F04D17B68B5
:1053300001225A750123AAE1FB6801333A6B9A42B4
:10534000DED0BA6A7B699A4209D87B6A1A1D7A62F2
:10535000FA6A1A607B6A1A1D7A623A691A60BB6837
:105360009B693A6B9A42C4D37B68DB6ABA6A1A605B
:10537000BA6A7B699A4203D87B6A00221A6084E188
:10538000112387F83F3080E17B68DB683A689A42F6
:1053900002D97B68DB683B607B683A689A613B684E
:1053A000002B00F072813B68013B19467868FDF7DD
:1053B00013FD02467B68DA61BA687B68DB691946CF
:1053C0001046FDF759FAB861BB69002B04D17B6820
:1053D00002225A7502235AE13B68013B5B0ABA6814
:1053E0005289013A1340BA691344BB617B689B69D7
:1053F000C3F30803002B00F048817B681B6ABA697D
:105400009A4200F042817B681B7D5BB2002B18DA68
:10541000BB6858787B6803F130017B681A6A012306
:10542000FCF798FE0346002B04D07B6801225A75D6
:1054300001232CE17B681B7D03F07F03DAB27B68DC
:105440001A75BB6858787B6803F130010123BA698B
:10545000FCF760FE0346002B04D07B6801225A75DE
:10546000012314E17B68BA691A620EE17B68DB688C
:105470003A689A4208D97B681B7D03F00203002B2F
:1054800002D17B68DB683B607B689B693B620023E1
:105490007B637B687A6B9A613B68002B00F0A78086
:1054A000BB685B895B02FB613B6A002B1BD03B68DE
:1054B0005A1EFB69B2FBF3F23B6A591EFB69B1FB52
:1054C000F3F39A420FD33B6A5A1EFB695B421A40C0
:1054D0007B689A617B689B693A68D31A3B607B68FA
:1054E000DB69BB6322E07B689B68BB63BB6B002B03
:1054F00019D17B6800211846FDF7D6FBB863BB6B5A
:10550000012B04D17B6802225A750223BFE0BB6BDA
:10551000B3F1FF3F04D17B6801225A750123B6E045
:105520007B68BA6B9A607B68BA6BDA61BB6B002BE5
:105530005DD03AE03A68FB69D31A3B607B689A69B0
:10554000FB691A447B689A617B681B7D03F0020348
:10555000002B0BD07B68B96B1846FDF7A5FBB86331
:10556000BB6B002B08D100233B6022E07B68B96B4A
:105570001846FDF7A0F9B863BB6BB3F1FF3F04D148
:105580007B6801225A75012381E0BB6B012B04D992
:10559000BB689B69BA6B9A4204D37B6802225A7536
:1055A000022374E07B68BA6BDA613A68FB699A425D
:1055B000C0D87B689A693B681A447B689A613B68EB
:1055C000C3F30803002B12D0BB68B96B1846FDF774
:1055D00053F978637B6B002B04D17B6802225A75E8
:1055E000022354E03B685B0A7A6B13447B637B685D
:1055F0009A697B68DB689A420AD97B689A697B68FA
:10560000DA607B681B7D43F04003DAB27B681A7571
:105610007B689B69C3F30803002B36D07B681B6A49
:105620007A6B9A4231D07B681B7D5BB2002B18DA13
:10563000BB6858787B6803F130017B681A6A0123E4
:10564000FCF788FD0346002B04D07B6801225A75C5
:1056500001231CE07B681B7D03F07F03DAB27B68CB
:105660001A75BB6858787B6803F1300101237A6BA7
:10567000FCF750FD0346002B04D07B6801225A75CD
:10568000012304E07B687A6B1A6297F83F30184672
:105690004037BD4680BD80B5ADF5067D00AF3B1DF2
:1056A00018603B4619603B1D1B68002B01D1092384
:1056B0008AE03B1D1B68C7F8103207F503713B46B3
:1056C00000221846FEF770FD034687F8173297F858
:1056D0001732002B6ED1D7F80C22D7F810321A608F
:1056E000D7F80C3207F10C02DA603B461A683B1D12
:1056F00011461868FEF74CFC034687F8173297F8F6
:105700001732002B4FD13B1D1B6893F82F305BB233
:10571000002B17DBD7F810329B7903F01003002B16
:105720000DD0D7F80C223B1D1B681B6A194610468A
:10573000FDF70DFD0246D7F810329A6002E005230E
:1057400087F8173297F81732002B2CD1D7F80C3284
:10575000DA88D7F810329A803B1D00211868FDF7CF
:105760006FFB034687F8173297F81732002B1AD1D0
:10577000D7F810329B68002B11D03B1D0021186810
:10578000FCF7ACFE0246D7F810321A61D7F8103297
:105790001B69002B07D1122387F8173203E0D7F8D3
:1057A000103200221A6197F81732042B02D1052318
:1057B00087F8173297F81732002B03D0D7F810323A
:1057C00000221A6097F81732184607F50677BD468B
:1057D00080BD80B584B000AF78607B6807F10802B7
:1057E00011461846FEF72CFF0346FB73FB7B002B8C
:1057F00010D17B681B69002B06D07B681B6918469B
:10580000FCF7FAFE0346FB73FB7B002B02D17B689F
:1058100000221A60FB7B18461037BD4680BD80B55C
:10582000ADF5047D00AF3B1D18603B4619603B1D84
:105830001B6807F5027211461846FEF701FF034682
:1058400087F80F3297F80F32002B39D13B461B688F
:10585000002B08D13B1D00211868FDF7F1FA034623
:1058600087F80F322CE0D7F8083207F10802DA6027
:105870003B1D00211868FDF796FE034687F80F329E
:1058800097F80F32042B02D1002387F80F3297F8D4
:105890000F32002B14D13A463B1D11681868FEF7F1
:1058A000E1F83B1D00211868FDF745FB034687F82A
:1058B0000F3297F80F32042B02D1002387F80F32F2
:1058C00097F80F32184607F50477BD4680BD80B5BE
:1058D00092B000AFF860B9607A6007F1280107F173
:1058E0000C0300221846FEF75FFC034687F847309A
:1058F00097F84730002B40F09980BA6A7B681A60AD
:10590000BB6A5A69BB6A9B69023B9A4204D8BB6A6C
:105910005A69BB681A6089E000233B64BB6A1B7844
:10592000012B28D10223FB63BB6A7B6107F11403BF
:10593000F96B1846FCF7BFFFF862FB6AB3F1FF3F53
:1059400003D1012387F8473063E0FB6A012B03D1C1
:10595000022387F847305CE0FB6A002B02D13B6CE6
:1059600001333B64FB6B0133FB63BB6A9B69FA6BDE
:105970009A42DBD34DE0BB6A9B69FB63BB6A5B6AFF
:10598000BB6300237B6300233B637B6B002B13D142
:10599000B86ABB6B5A1CBA631946FCF7D1FE0346C2
:1059A00087F8473097F84730002B31D1BB6A343342
:1059B0003B634FF400737B63BB6A1B78022B0FD1F0
:1059C000386BFCF70DFC0346002B02D13B6C013316
:1059D0003B643B6B02333B637B6B023B7B6310E0BE
:1059E000386BFCF715FC034623F07043002B02D103
:1059F0003B6C01333B643B6B04333B637B6B043B8D
:105A00007B63FB6B013BFB63FB6B002BBDD100E0B9
:105A100000BFBB683A6C1A60BB6A3A6C5A61BB6AD9
:105A20001A79BB6A42F00102D2B21A7197F8473074
:105A300018464837BD4680BD80B584B000AF786059
:105A40000B46FB707B685B68FB60FB68002B25DB0B
:105A5000FB685A1CFA607A681344FA781A73FB6878
:105A60003C2B12DD7B6818687B6803F10C01FA6837
:105A700007F10803FFF7E9F9BA68FB689A4201D118
:105A8000002301E04FF0FF33FB607B68FA685A6047
:105A90007B689B685A1C7B689A6000E000BF1037E7
:105AA000BD4680BD80B584B000AF78607B685B6820
:105AB000002B16DB7B6818687B6803F10C017B68A0
:105AC0005B681A4607F10C03FFF7BFF90346002B8A
:105AD00007D17B685B68FA68934202D17B689B6858
